{
  "_format": "hh-sol-artifact-1",
  "contractName": "Auction",
  "sourceName": "contracts/Auction.sol",
  "abi": [
    {
      "inputs": [
        {
          "internalType": "address",
          "name": "_token",
          "type": "address"
        },
        {
          "internalType": "address",
          "name": "_paymentToken",
          "type": "address"
        },
        {
          "internalType": "uint256",
          "name": "_initialPrice",
          "type": "uint256"
        },
        {
          "internalType": "uint256",
          "name": "_duration",
          "type": "uint256"
        },
        {
          "internalType": "uint256",
          "name": "_priceDropPerSecond",
          "type": "uint256"
        },
        {
          "internalType": "uint256",
          "name": "_amountForSale",
          "type": "uint256"
        }
      ],
      "stateMutability": "nonpayable",
      "type": "constructor"
    },
    {
      "anonymous": false,
      "inputs": [
        {
          "indexed": true,
          "internalType": "address",
          "name": "seller",
          "type": "address"
        },
        {
          "indexed": false,
          "internalType": "uint256",
          "name": "initialPrice",
          "type": "uint256"
        },
        {
          "indexed": false,
          "internalType": "uint256",
          "name": "duration",
          "type": "uint256"
        }
      ],
      "name": "AuctionStarted",
      "type": "event"
    },
    {
      "anonymous": false,
      "inputs": [
        {
          "indexed": true,
          "internalType": "address",
          "name": "buyer",
          "type": "address"
        },
        {
          "indexed": false,
          "internalType": "uint256",
          "name": "price",
          "type": "uint256"
        },
        {
          "indexed": false,
          "internalType": "uint256",
          "name": "amount",
          "type": "uint256"
        }
      ],
      "name": "TokensPurchased",
      "type": "event"
    },
    {
      "inputs": [],
      "name": "amountForSale",
      "outputs": [
        {
          "internalType": "uint256",
          "name": "",
          "type": "uint256"
        }
      ],
      "stateMutability": "view",
      "type": "function"
    },
    {
      "inputs": [],
      "name": "auctionEnded",
      "outputs": [
        {
          "internalType": "bool",
          "name": "",
          "type": "bool"
        }
      ],
      "stateMutability": "view",
      "type": "function"
    },
    {
      "inputs": [],
      "name": "buyTokens",
      "outputs": [],
      "stateMutability": "nonpayable",
      "type": "function"
    },
    {
      "inputs": [],
      "name": "duration",
      "outputs": [
        {
          "internalType": "uint256",
          "name": "",
          "type": "uint256"
        }
      ],
      "stateMutability": "view",
      "type": "function"
    },
    {
      "inputs": [],
      "name": "getCurrentPrice",
      "outputs": [
        {
          "internalType": "uint256",
          "name": "",
          "type": "uint256"
        }
      ],
      "stateMutability": "view",
      "type": "function"
    },
    {
      "inputs": [],
      "name": "initialPrice",
      "outputs": [
        {
          "internalType": "uint256",
          "name": "",
          "type": "uint256"
        }
      ],
      "stateMutability": "view",
      "type": "function"
    },
    {
      "inputs": [],
      "name": "paymentToken",
      "outputs": [
        {
          "internalType": "contract IERC20",
          "name": "",
          "type": "address"
        }
      ],
      "stateMutability": "view",
      "type": "function"
    },
    {
      "inputs": [],
      "name": "priceDropPerSecond",
      "outputs": [
        {
          "internalType": "uint256",
          "name": "",
          "type": "uint256"
        }
      ],
      "stateMutability": "view",
      "type": "function"
    },
    {
      "inputs": [],
      "name": "seller",
      "outputs": [
        {
          "internalType": "address",
          "name": "",
          "type": "address"
        }
      ],
      "stateMutability": "view",
      "type": "function"
    },
    {
      "inputs": [],
      "name": "startAuction",
      "outputs": [],
      "stateMutability": "nonpayable",
      "type": "function"
    },
    {
      "inputs": [],
      "name": "startTime",
      "outputs": [
        {
          "internalType": "uint256",
          "name": "",
          "type": "uint256"
        }
      ],
      "stateMutability": "view",
      "type": "function"
    },
    {
      "inputs": [],
      "name": "token",
      "outputs": [
        {
          "internalType": "contract IERC20",
          "name": "",
          "type": "address"
        }
      ],
      "stateMutability": "view",
      "type": "function"
    }
  ],
  "bytecode": "0x608060405234801561001057600080fd5b506040516112913803806112918339818101604052810190610032919061023a565b60008411610075576040517f08c379a000000000000000000000000000000000000000000000000000000000815260040161006c9061034a565b60405180910390fd5b600083116100b8576040517f08c379a00000000000000000000000000000000000000000000000000000000081526004016100af906103b6565b60405180910390fd5b336000806101000a81548173ffffffffffffffffffffffffffffffffffffffff021916908373ffffffffffffffffffffffffffffffffffffffff16021790555085600160006101000a81548173ffffffffffffffffffffffffffffffffffffffff021916908373ffffffffffffffffffffffffffffffffffffffff16021790555084600260006101000a81548173ffffffffffffffffffffffffffffffffffffffff021916908373ffffffffffffffffffffffffffffffffffffffff160217905550836003819055508260058190555081600681905550806007819055505050505050506103d6565b600080fd5b600073ffffffffffffffffffffffffffffffffffffffff82169050919050565b60006101d1826101a6565b9050919050565b6101e1816101c6565b81146101ec57600080fd5b50565b6000815190506101fe816101d8565b92915050565b6000819050919050565b61021781610204565b811461022257600080fd5b50565b6000815190506102348161020e565b92915050565b60008060008060008060c08789031215610257576102566101a1565b5b600061026589828a016101ef565b965050602061027689828a016101ef565b955050604061028789828a01610225565b945050606061029889828a01610225565b93505060806102a989828a01610225565b92505060a06102ba89828a01610225565b9150509295509295509295565b600082825260208201905092915050565b7f496e697469616c207072696365206e65656420746f206265206772656174657260008201527f207468616e207a65726f00000000000000000000000000000000000000000000602082015250565b6000610334602a836102c7565b915061033f826102d8565b604082019050919050565b6000602082019050818103600083015261036381610327565b9050919050565b7f496e76616c6964206475726174696f6e00000000000000000000000000000000600082015250565b60006103a06010836102c7565b91506103ab8261036a565b602082019050919050565b600060208201905081810360008301526103cf81610393565b9050919050565b610eac806103e56000396000f3fe608060405234801561001057600080fd5b50600436106100b45760003560e01c80638473e55f116100715780638473e55f146101595780638643337414610177578063b3a4b87e14610195578063d0febe4c146101b3578063eb91d37e146101bd578063fc0c546a146101db576100b4565b806308551a53146100b95780630fb5a6b4146100d75780631d0806ae146100f55780633013ce29146101135780636b64c7691461013157806378e979251461013b575b600080fd5b6100c16101f9565b6040516100ce91906108c0565b60405180910390f35b6100df61021d565b6040516100ec91906108f4565b60405180910390f35b6100fd610223565b60405161010a91906108f4565b60405180910390f35b61011b610229565b604051610128919061096e565b60405180910390f35b61013961024f565b005b6101436104a2565b60405161015091906108f4565b60405180910390f35b6101616104a8565b60405161016e91906108f4565b60405180910390f35b61017f6104ae565b60405161018c91906109a4565b60405180910390f35b61019d6104c1565b6040516101aa91906108f4565b60405180910390f35b6101bb6104c7565b005b6101c56107fd565b6040516101d291906108f4565b60405180910390f35b6101e3610859565b6040516101f0919061096e565b60405180910390f35b60008054906101000a900473ffffffffffffffffffffffffffffffffffffffff1681565b60055481565b60035481565b600260009054906101000a900473ffffffffffffffffffffffffffffffffffffffff1681565b60008054906101000a900473ffffffffffffffffffffffffffffffffffffffff1673ffffffffffffffffffffffffffffffffffffffff163373ffffffffffffffffffffffffffffffffffffffff16146102dd576040517f08c379a00000000000000000000000000000000000000000000000000000000081526004016102d490610a1c565b60405180910390fd5b600060045414610322576040517f08c379a000000000000000000000000000000000000000000000000000000000815260040161031990610a88565b60405180910390fd5b42600481905550600160009054906101000a900473ffffffffffffffffffffffffffffffffffffffff1673ffffffffffffffffffffffffffffffffffffffff166323b872dd60008054906101000a900473ffffffffffffffffffffffffffffffffffffffff16306007546040518463ffffffff1660e01b81526004016103aa93929190610aa8565b6020604051808303816000875af11580156103c9573d6000803e3d6000fd5b505050506040513d601f19601f820116820180604052508101906103ed9190610b10565b61042c576040517f08c379a000000000000000000000000000000000000000000000000000000000815260040161042390610b89565b60405180910390fd5b60008054906101000a900473ffffffffffffffffffffffffffffffffffffffff1673ffffffffffffffffffffffffffffffffffffffff167f92db7303de5c78e58e4570f0b4acf392e3dac09394e96c4fa62b323b6337ee65600354600554604051610498929190610ba9565b60405180910390a2565b60045481565b60075481565b600860009054906101000a900460ff1681565b60065481565b60006004541161050c576040517f08c379a000000000000000000000000000000000000000000000000000000000815260040161050390610c1e565b60405180910390fd5b600860009054906101000a900460ff161561055c576040517f08c379a000000000000000000000000000000000000000000000000000000000815260040161055390610c8a565b60405180910390fd5b60006105666107fd565b9050600081146105ab576040517f08c379a00000000000000000000000000000000000000000000000000000000081526004016105a290610d1c565b60405180910390fd5b600260009054906101000a900473ffffffffffffffffffffffffffffffffffffffff1673ffffffffffffffffffffffffffffffffffffffff166323b872dd3360008054906101000a900473ffffffffffffffffffffffffffffffffffffffff16846040518463ffffffff1660e01b815260040161062a93929190610aa8565b6020604051808303816000875af1158015610649573d6000803e3d6000fd5b505050506040513d601f19601f8201168201806040525081019061066d9190610b10565b6106ac576040517f08c379a00000000000000000000000000000000000000000000000000000000081526004016106a390610d88565b60405180910390fd5b600160009054906101000a900473ffffffffffffffffffffffffffffffffffffffff1673ffffffffffffffffffffffffffffffffffffffff1663a9059cbb336007546040518363ffffffff1660e01b815260040161070b929190610da8565b6020604051808303816000875af115801561072a573d6000803e3d6000fd5b505050506040513d601f19601f8201168201806040525081019061074e9190610b10565b61078d576040517f08c379a000000000000000000000000000000000000000000000000000000000815260040161078490610b89565b60405180910390fd5b6001600860006101000a81548160ff0219169083151502179055503373ffffffffffffffffffffffffffffffffffffffff167f8fafebcaf9d154343dad25669bfa277f4fbacd7ac6b0c4fed522580e040a0f33826007546040516107f2929190610ba9565b60405180910390a250565b60008060045403610812576003549050610856565b6000600454426108229190610e00565b90506005548110610837576000915050610856565b600654816108459190610e34565b6003546108529190610e00565b9150505b90565b600160009054906101000a900473ffffffffffffffffffffffffffffffffffffffff1681565b600073ffffffffffffffffffffffffffffffffffffffff82169050919050565b60006108aa8261087f565b9050919050565b6108ba8161089f565b82525050565b60006020820190506108d560008301846108b1565b92915050565b6000819050919050565b6108ee816108db565b82525050565b600060208201905061090960008301846108e5565b92915050565b6000819050919050565b600061093461092f61092a8461087f565b61090f565b61087f565b9050919050565b600061094682610919565b9050919050565b60006109588261093b565b9050919050565b6109688161094d565b82525050565b6000602082019050610983600083018461095f565b92915050565b60008115159050919050565b61099e81610989565b82525050565b60006020820190506109b96000830184610995565b92915050565b600082825260208201905092915050565b7f4f6e6c792073656c6c65722063616e206f70656e2061756374696f6e00000000600082015250565b6000610a06601c836109bf565b9150610a11826109d0565b602082019050919050565b60006020820190508181036000830152610a35816109f9565b9050919050565b7f41756374696f6e20616c72656164792073746172746564000000000000000000600082015250565b6000610a726017836109bf565b9150610a7d82610a3c565b602082019050919050565b60006020820190508181036000830152610aa181610a65565b9050919050565b6000606082019050610abd60008301866108b1565b610aca60208301856108b1565b610ad760408301846108e5565b949350505050565b600080fd5b610aed81610989565b8114610af857600080fd5b50565b600081519050610b0a81610ae4565b92915050565b600060208284031215610b2657610b25610adf565b5b6000610b3484828501610afb565b91505092915050565b7f546f6b656e207472616e73666572206661696c65640000000000000000000000600082015250565b6000610b736015836109bf565b9150610b7e82610b3d565b602082019050919050565b60006020820190508181036000830152610ba281610b66565b9050919050565b6000604082019050610bbe60008301856108e5565b610bcb60208301846108e5565b9392505050565b7f41756374696f6e206e6f74207374617274656400000000000000000000000000600082015250565b6000610c086013836109bf565b9150610c1382610bd2565b602082019050919050565b60006020820190508181036000830152610c3781610bfb565b9050919050565b7f41756374696f6e20616c726561647920656e6465640000000000000000000000600082015250565b6000610c746015836109bf565b9150610c7f82610c3e565b602082019050919050565b60006020820190508181036000830152610ca381610c67565b9050919050565b7f41756374696f6e2068617320656e6465642077697468207072696365207a657260008201527f6f00000000000000000000000000000000000000000000000000000000000000602082015250565b6000610d066021836109bf565b9150610d1182610caa565b604082019050919050565b60006020820190508181036000830152610d3581610cf9565b9050919050565b7f5061796d656e74207472616e73666572206661696c6564000000000000000000600082015250565b6000610d726017836109bf565b9150610d7d82610d3c565b602082019050919050565b60006020820190508181036000830152610da181610d65565b9050919050565b6000604082019050610dbd60008301856108b1565b610dca60208301846108e5565b9392505050565b7f4e487b7100000000000000000000000000000000000000000000000000000000600052601160045260246000fd5b6000610e0b826108db565b9150610e16836108db565b9250828203905081811115610e2e57610e2d610dd1565b5b92915050565b6000610e3f826108db565b9150610e4a836108db565b9250828202610e58816108db565b91508282048414831517610e6f57610e6e610dd1565b5b509291505056fea26469706673582212206f7abb9c8a8cc9141bfb728d215c21087adf634706fd531f41533969fe77f5c664736f6c634300081c0033",
  "linkReferences": {},
  "deployedLinkReferences": {}
}